{"abi":[{"constant":true,"inputs":[],"name":"mintingFinished","outputs":[{"name":"","type":"bool"}],"payable":false,"type":"function"},{"constant":true,"inputs":[],"name":"name","outputs":[{"name":"","type":"string"}],"payable":false,"type":"function"},{"constant":false,"inputs":[{"name":"_spender","type":"address"},{"name":"_value","type":"uint256"}],"name":"approve","outputs":[],"payable":false,"type":"function"},{"constant":true,"inputs":[],"name":"totalSupply","outputs":[{"name":"","type":"uint256"}],"payable":false,"type":"function"},{"constant":false,"inputs":[{"name":"_from","type":"address"},{"name":"_to","type":"address"},{"name":"_value","type":"uint256"}],"name":"transferFrom","outputs":[],"payable":false,"type":"function"},{"constant":true,"inputs":[],"name":"decimals","outputs":[{"name":"","type":"uint256"}],"payable":false,"type":"function"},{"constant":false,"inputs":[],"name":"unpause","outputs":[{"name":"","type":"bool"}],"payable":false,"type":"function"},{"constant":false,"inputs":[{"name":"_to","type":"address"},{"name":"_amount","type":"uint256"}],"name":"mint","outputs":[{"name":"","type":"bool"}],"payable":false,"type":"function"},{"constant":true,"inputs":[],"name":"paused","outputs":[{"name":"","type":"bool"}],"payable":false,"type":"function"},{"constant":true,"inputs":[{"name":"_owner","type":"address"}],"name":"balanceOf","outputs":[{"name":"balance","type":"uint256"}],"payable":false,"type":"function"},{"constant":false,"inputs":[],"name":"finishMinting","outputs":[{"name":"","type":"bool"}],"payable":false,"type":"function"},{"constant":false,"inputs":[],"name":"pause","outputs":[{"name":"","type":"bool"}],"payable":false,"type":"function"},{"constant":true,"inputs":[],"name":"owner","outputs":[{"name":"","type":"address"}],"payable":false,"type":"function"},{"constant":true,"inputs":[],"name":"symbol","outputs":[{"name":"","type":"string"}],"payable":false,"type":"function"},{"constant":false,"inputs":[{"name":"_to","type":"address"},{"name":"_value","type":"uint256"}],"name":"transfer","outputs":[],"payable":false,"type":"function"},{"constant":false,"inputs":[{"name":"_to","type":"address"},{"name":"_amount","type":"uint256"},{"name":"_releaseTime","type":"uint256"}],"name":"mintTimelocked","outputs":[{"name":"","type":"address"}],"payable":false,"type":"function"},{"constant":true,"inputs":[{"name":"_owner","type":"address"},{"name":"_spender","type":"address"}],"name":"allowance","outputs":[{"name":"remaining","type":"uint256"}],"payable":false,"type":"function"},{"constant":false,"inputs":[{"name":"newOwner","type":"address"}],"name":"transferOwnership","outputs":[],"payable":false,"type":"function"},{"anonymous":false,"inputs":[{"indexed":true,"name":"to","type":"address"},{"indexed":false,"name":"value","type":"uint256"}],"name":"Mint","type":"event"},{"anonymous":false,"inputs":[],"name":"MintFinished","type":"event"},{"anonymous":false,"inputs":[],"name":"Pause","type":"event"},{"anonymous":false,"inputs":[],"name":"Unpause","type":"event"},{"anonymous":false,"inputs":[{"indexed":true,"name":"owner","type":"address"},{"indexed":true,"name":"spender","type":"address"},{"indexed":false,"name":"value","type":"uint256"}],"name":"Approval","type":"event"},{"anonymous":false,"inputs":[{"indexed":true,"name":"from","type":"address"},{"indexed":true,"name":"to","type":"address"},{"indexed":false,"name":"value","type":"uint256"}],"name":"Transfer","type":"event"}],"evm":{"bytecode":{"linkReferences":{},"object":"6003805460a060020a61ffff0219169055600060045560a0604052600860608190527f4f4d47546f6b656e000000000000000000000000000000000000000000000000608090815261005491600591906100c1565b506040805180820190915260038082527f4f4d4700000000000000000000000000000000000000000000000000000000006020909201918252610099916006916100c1565b5060126007555b60038054600160a060020a03191633600160a060020a03161790555b610161565b828054600181600116156101000203166002900490600052602060002090601f016020900481019282601f1061010257805160ff191683800117855561012f565b8280016001018555821561012f579182015b8281111561012f578251825591602001919060010190610114565b5b5061013c929150610140565b5090565b61015e91905b8082111561013c5760008155600101610146565b5090565b90565b610f4c806101706000396000f300606060405236156100f95763ffffffff7c010000000000000000000000000000000000000000000000000000000060003504166305d2035b81146100fb57806306fdde031461011f578063095ea7b3146101af57806318160ddd146101d057806323b872dd146101f2578063313ce567146102195780633f4ba83a1461023b57806340c10f191461025f5780635c975abb1461029257806370a08231146102b65780637d64bcb4146102e45780638456cb59146103085780638da5cb5b1461032c57806395d89b4114610358578063a9059cbb146103e8578063c14a3b8c14610409578063dd62ed3e14610447578063f2fde38b1461047b575bfe5b341561010357fe5b61010b610499565b604080519115158252519081900360200190f35b341561012757fe5b61012f6104a9565b604080516020808252835181830152835191928392908301918501908083838215610175575b80518252602083111561017557601f199092019160209182019101610155565b505050905090810190601f1680156101a15780820380516001836020036101000a031916815260200191505b509250505060405180910390f35b34156101b757fe5b6101ce600160a060020a0360043516602435610537565b005b34156101d857fe5b6101e06105d7565b60408051918252519081900360200190f35b34156101fa57fe5b6101ce600160a060020a03600435811690602435166044356105dd565b005b341561022157fe5b6101e0610607565b60408051918252519081900360200190f35b341561024357fe5b61010b61060d565b604080519115158252519081900360200190f35b341561026757fe5b61010b600160a060020a0360043516602435610695565b604080519115158252519081900360200190f35b341561029a57fe5b61010b610769565b604080519115158252519081900360200190f35b34156102be57fe5b6101e0600160a060020a0360043516610779565b60408051918252519081900360200190f35b34156102ec57fe5b61010b610798565b604080519115158252519081900360200190f35b341561031057fe5b61010b61080d565b604080519115158252519081900360200190f35b341561033457fe5b61033c61089a565b60408051600160a060020a039092168252519081900360200190f35b341561036057fe5b61012f6108a9565b604080516020808252835181830152835191928392908301918501908083838215610175575b80518252602083111561017557601f199092019160209182019101610155565b505050905090810190601f1680156101a15780820380516001836020036101000a031916815260200191505b509250505060405180910390f35b34156103f057fe5b6101ce600160a060020a0360043516602435610937565b005b341561041157fe5b61033c600160a060020a036004351660243560443561095f565b60408051600160a060020a039092168252519081900360200190f35b341561044f57fe5b6101e0600160a060020a03600435811690602435166109f3565b60408051918252519081900360200190f35b341561048357fe5b6101ce600160a060020a0360043516610a20565b005b60035460a860020a900460ff1681565b6005805460408051602060026001851615610100026000190190941693909304601f8101849004840282018401909252818152929183018282801561052f5780601f106105045761010080835404028352916020019161052f565b820191906000526020600020905b81548152906001019060200180831161051257829003601f168201915b505050505081565b801580159061056a5750600160a060020a0333811660009081526002602090815260408083209386168352929052205415155b156105755760006000fd5b600160a060020a03338116600081815260026020908152604080832094871680845294825291829020859055815185815291517f8c5be1e5ebec7d5bd14f71427d1e84f3dd0314c0f7b2291e5b200ac8c7c3b9259281900390910190a35b5050565b60045481565b60035460a060020a900460ff16156105f55760006000fd5b610600838383610a79565b5b5b505050565b60075481565b60035460009033600160a060020a0390811691161461062c5760006000fd5b60035460a060020a900460ff1615156106455760006000fd5b6003805474ff0000000000000000000000000000000000000000191690556040517f7805862f689e2f13df9f062ff482ad3ad112aca9e0847911ed832e158c525b3390600090a15060015b5b5b90565b60035460009033600160a060020a039081169116146106b45760006000fd5b60035460a860020a900460ff16156106cc5760006000fd5b6004546106df908363ffffffff610b9d16565b600455600160a060020a03831660009081526001602052604090205461070b908363ffffffff610b9d16565b600160a060020a038416600081815260016020908152604091829020939093558051858152905191927f0f6798a560793a54c3bcfe86a93cde1e73087d944c0ea20544137d412139688592918290030190a25060015b5b5b92915050565b60035460a060020a900460ff1681565b600160a060020a0381166000908152600160205260409020545b919050565b60035460009033600160a060020a039081169116146107b75760006000fd5b6003805475ff000000000000000000000000000000000000000000191660a860020a1790556040517fae5184fba832cb2b1f702aca6117b8d265eaf03ad33eb133f19dde0f5920fa0890600090a15060015b5b90565b60035460009033600160a060020a0390811691161461082c5760006000fd5b60035460a060020a900460ff16156108445760006000fd5b6003805474ff0000000000000000000000000000000000000000191660a060020a1790556040517f6985a02210a168e66602d3235cb6db0e70f92b3ba4d376a33c0f3d9434bff62590600090a15060015b5b5b90565b600354600160a060020a031681565b6006805460408051602060026001851615610100026000190190941693909304601f8101849004840282018401909252818152929183018282801561052f5780601f106105045761010080835404028352916020019161052f565b820191906000526020600020905b81548152906001019060200180831161051257829003601f168201915b505050505081565b60035460a060020a900460ff161561094f5760006000fd5b6105d38282610bb9565b5b5b5050565b600354600090819033600160a060020a039081169116146109805760006000fd5b60035460a860020a900460ff16156109985760006000fd5b3085846109a3610cb1565b600160a060020a039384168152919092166020820152604080820192909252905190819003606001906000f08015156109d857fe5b90506109e48185610695565b508091505b5b5b509392505050565b600160a060020a038083166000908152600260209081526040808320938516835292905220545b92915050565b60035433600160a060020a03908116911614610a3c5760006000fd5b600160a060020a03811615610a74576003805473ffffffffffffffffffffffffffffffffffffffff1916600160a060020a0383161790555b5b5b50565b600060606064361015610a8c5760006000fd5b600160a060020a038086166000908152600260209081526040808320338516845282528083205493881683526001909152902054909250610ad3908463ffffffff610b9d16565b600160a060020a038086166000908152600160205260408082209390935590871681522054610b08908463ffffffff610c8716565b600160a060020a038616600090815260016020526040902055610b31828463ffffffff610c8716565b600160a060020a038087166000818152600260209081526040808320338616845282529182902094909455805187815290519288169391927fddf252ad1be2c89b69c2b068fc378daa952ba7f163c4a11628f55a4df523b3ef929181900390910190a35b5b5050505050565b6000828201610bae84821015610ca0565b8091505b5092915050565b60406044361015610bca5760006000fd5b600160a060020a033316600090815260016020526040902054610bf3908363ffffffff610c8716565b600160a060020a033381166000908152600160205260408082209390935590851681522054610c28908363ffffffff610b9d16565b600160a060020a038085166000818152600160209081526040918290209490945580518681529051919333909316927fddf252ad1be2c89b69c2b068fc378daa952ba7f163c4a11628f55a4df523b3ef92918290030190a35b5b505050565b6000610c9583831115610ca0565b508082035b92915050565b801515610a745760006000fd5b5b50565b60405161025f80610cc28339019056006060604052341561000c57fe5b60405160608061025f8339810160409081528151602083015191909201515b4281116100385760006000fd5b60008054600160a060020a03808616600160a060020a031992831617909255600180549285169290911691909117905560028190555b5050505b6101de806100816000396000f300606060405263ffffffff7c01000000000000000000000000000000000000000000000000000000006000350416634e71d92d811461003a575bfe5b341561004257fe5b61004a61004c565b005b6001546000903373ffffffffffffffffffffffffffffffffffffffff9081169116146100785760006000fd5b6002544210156100885760006000fd5b6000805460408051602090810184905281517f70a0823100000000000000000000000000000000000000000000000000000000815273ffffffffffffffffffffffffffffffffffffffff3081166004830152925192909316936370a082319360248082019492918390030190829087803b151561010157fe5b6102c65a03f1151561010f57fe5b505060405151915050600081116101265760006000fd5b60008054600154604080517fa9059cbb00000000000000000000000000000000000000000000000000000000815273ffffffffffffffffffffffffffffffffffffffff9283166004820152602481018690529051919092169263a9059cbb926044808201939182900301818387803b151561019d57fe5b6102c65a03f115156101ab57fe5b5050505b505600a165627a7a723058204c37435b790331d68c36965a2a6a779ee7dfa9e5ef15513f34e6101f902c29460029a165627a7a72305820bd47f6ac2bce50684ad966d758abb0d15a897d3c3e985efd1d4b5ce46e7353360029","opcodes":"PUSH1 0x60 PUSH1 0x40 MSTORE CALLDATASIZE ISZERO PUSH2 0x00f9 JUMPI PUSH4 0xffffffff PUSH29 0x0100000000000000000000000000000000000000000000000000000000 PUSH1 0x00 CALLDATALOAD DIV AND PUSH4 0x05d2035b DUP2 EQ PUSH2 0x00fb JUMPI DUP1 PUSH4 0x06fdde03 EQ PUSH2 0x011f JUMPI DUP1 PUSH4 0x095ea7b3 EQ PUSH2 0x01af JUMPI DUP1 PUSH4 0x18160ddd EQ PUSH2 0x01d0 JUMPI DUP1 PUSH4 0x23b872dd EQ PUSH2 0x01f2 JUMPI DUP1 PUSH4 0x313ce567 EQ PUSH2 0x0219 JUMPI DUP1 PUSH4 0x3f4ba83a EQ PUSH2 0x023b JUMPI DUP1 PUSH4 0x40c10f19 EQ PUSH2 0x025f JUMPI DUP1 PUSH4 0x5c975abb EQ PUSH2 0x0292 JUMPI DUP1 PUSH4 0x70a08231 EQ PUSH2 0x02b6 JUMPI DUP1 PUSH4 0x7d64bcb4 EQ PUSH2 0x02e4 JUMPI DUP1 PUSH4 0x8456cb59 EQ PUSH2 0x0308 JUMPI DUP1 PUSH4 0x8da5cb5b EQ PUSH2 0x032c JUMPI DUP1 PUSH4 0x95d89b41 EQ PUSH2 0x0358 JUMPI DUP1 PUSH4 0xa9059cbb EQ PUSH2 0x03e8 JUMPI DUP1 PUSH4 0xc14a3b8c EQ PUSH2 0x0409 JUMPI DUP1 PUSH4 0xdd62ed3e EQ PUSH2 0x0447 JUMPI DUP1 PUSH4 0xf2fde38b EQ PUSH2 0x047b JUMPI JUMPDEST 'fe'(Unknown Opcode) JUMPDEST CALLVALUE ISZERO PUSH2 0x0103 JUMPI 'fe'(Unknown Opcode) JUMPDEST PUSH2 0x010b PUSH2 0x0499 JUMP JUMPDEST PUSH1 0x40 DUP1 MLOAD SWAP2 ISZERO ISZERO DUP3 MSTORE MLOAD SWAP1 DUP2 SWAP1 SUB PUSH1 0x20 ADD SWAP1 RETURN JUMPDEST CALLVALUE ISZERO PUSH2 0x0127 JUMPI 'fe'(Unknown Opcode) JUMPDEST PUSH2 0x012f PUSH2 0x04a9 JUMP JUMPDEST PUSH1 0x40 DUP1 MLOAD PUSH1 0x20 DUP1 DUP3 MSTORE DUP4 MLOAD DUP2 DUP4 ADD MSTORE DUP4 MLOAD SWAP2 SWAP3 DUP4 SWAP3 SWAP1 DUP4 ADD SWAP2 DUP6 ADD SWAP1 DUP1 DUP4 DUP4 DUP3 ISZERO PUSH2 0x0175 JUMPI JUMPDEST DUP1 MLOAD DUP3 MSTORE PUSH1 0x20 DUP4 GT ISZERO PUSH2 0x0175 JUMPI PUSH1 0x1f NOT SWAP1 SWAP3 ADD SWAP2 PUSH1 0x20 SWAP2 DUP3 ADD SWAP2 ADD PUSH2 0x0155 JUMP JUMPDEST POP POP POP SWAP1 POP SWAP1 DUP2 ADD SWAP1 PUSH1 0x1f AND DUP1 ISZERO PUSH2 0x01a1 JUMPI DUP1 DUP3 SUB DUP1 MLOAD PUSH1 0x01 DUP4 PUSH1 0x20 SUB PUSH2 0x0100 EXP SUB NOT AND DUP2 MSTORE PUSH1 0x20 ADD SWAP2 POP JUMPDEST POP SWAP3 POP POP POP PUSH1 0x40 MLOAD DUP1 SWAP2 SUB SWAP1 RETURN JUMPDEST CALLVALUE ISZERO PUSH2 0x01b7 JUMPI 'fe'(Unknown Opcode) JUMPDEST PUSH2 0x01ce PUSH1 0x01 PUSH1 0xa0 PUSH1 0x02 EXP SUB PUSH1 0x04 CALLDATALOAD AND PUSH1 0x24 CALLDATALOAD PUSH2 0x0537 JUMP JUMPDEST STOP JUMPDEST CALLVALUE ISZERO PUSH2 0x01d8 JUMPI 'fe'(Unknown Opcode) JUMPDEST PUSH2 0x01e0 PUSH2 0x05d7 JUMP JUMPDEST PUSH1 0x40 DUP1 MLOAD SWAP2 DUP3 MSTORE MLOAD SWAP1 DUP2 SWAP1 SUB PUSH1 0x20 ADD SWAP1 RETURN JUMPDEST CALLVALUE ISZERO PUSH2 0x01fa JUMPI 'fe'(Unknown Opcode) JUMPDEST PUSH2 0x01ce PUSH1 0x01 PUSH1 0xa0 PUSH1 0x02 EXP SUB PUSH1 0x04 CALLDATALOAD DUP2 AND SWAP1 PUSH1 0x24 CALLDATALOAD AND PUSH1 0x44 CALLDATALOAD PUSH2 0x05dd JUMP JUMPDEST STOP JUMPDEST CALLVALUE ISZERO PUSH2 0x0221 JUMPI 'fe'(Unknown Opcode) JUMPDEST PUSH2 0x01e0 PUSH2 0x0607 JUMP JUMPDEST PUSH1 0x40 DUP1 MLOAD SWAP2 DUP3 MSTORE MLOAD SWAP1 DUP2 SWAP1 SUB PUSH1 0x20 ADD SWAP1 RETURN JUMPDEST CALLVALUE ISZERO PUSH2 0x0243 JUMPI 'fe'(Unknown Opcode) JUMPDEST PUSH2 0x010b PUSH2 0x060d JUMP JUMPDEST PUSH1 0x40 DUP1 MLOAD SWAP2 ISZERO ISZERO DUP3 MSTORE MLOAD SWAP1 DUP2 SWAP1 SUB PUSH1 0x20 ADD SWAP1 RETURN JUMPDEST CALLVALUE ISZERO PUSH2 0x0267 JUMPI 'fe'(Unknown Opcode) JUMPDEST PUSH2 0x010b PUSH1 0x01 PUSH1 0xa0 PUSH1 0x02 EXP SUB PUSH1 0x04 CALLDATALOAD AND PUSH1 0x24 CALLDATALOAD PUSH2 0x0695 JUMP JUMPDEST PUSH1 0x40 DUP1 MLOAD SWAP2 ISZERO ISZERO DUP3 MSTORE MLOAD SWAP1 DUP2 SWAP1 SUB PUSH1 0x20 ADD SWAP1 RETURN JUMPDEST CALLVALUE ISZERO PUSH2 0x029a JUMPI 'fe'(Unknown Opcode) JUMPDEST PUSH2 0x010b PUSH2 0x0769 JUMP JUMPDEST PUSH1 0x40 DUP1 MLOAD SWAP2 ISZERO ISZERO DUP3 MSTORE MLOAD SWAP1 DUP2 SWAP1 SUB PUSH1 0x20 ADD SWAP1 RETURN JUMPDEST CALLVALUE ISZERO PUSH2 0x02be JUMPI 'fe'(Unknown Opcode) JUMPDEST PUSH2 0x01e0 PUSH1 0x01 PUSH1 0xa0 PUSH1 0x02 EXP SUB PUSH1 0x04 CALLDATALOAD AND PUSH2 0x0779 JUMP JUMPDEST PUSH1 0x40 DUP1 MLOAD SWAP2 DUP3 MSTORE MLOAD SWAP1 DUP2 SWAP1 SUB PUSH1 0x20 ADD SWAP1 RETURN JUMPDEST CALLVALUE ISZERO PUSH2 0x02ec JUMPI 'fe'(Unknown Opcode) JUMPDEST PUSH2 0x010b PUSH2 0x0798 JUMP JUMPDEST PUSH1 0x40 DUP1 MLOAD SWAP2 ISZERO ISZERO DUP3 MSTORE MLOAD SWAP1 DUP2 SWAP1 SUB PUSH1 0x20 ADD SWAP1 RETURN JUMPDEST CALLVALUE ISZERO PUSH2 0x0310 JUMPI 'fe'(Unknown Opcode) JUMPDEST PUSH2 0x010b PUSH2 0x080d JUMP JUMPDEST PUSH1 0x40 DUP1 MLOAD SWAP2 ISZERO ISZERO DUP3 MSTORE MLOAD SWAP1 DUP2 SWAP1 SUB PUSH1 0x20 ADD SWAP1 RETURN JUMPDEST CALLVALUE ISZERO PUSH2 0x0334 JUMPI 'fe'(Unknown Opcode) JUMPDEST PUSH2 0x033c PUSH2 0x089a JUMP JUMPDEST PUSH1 0x40 DUP1 MLOAD PUSH1 0x01 PUSH1 0xa0 PUSH1 0x02 EXP SUB SWAP1 SWAP3 AND DUP3 MSTORE MLOAD SWAP1 DUP2 SWAP1 SUB PUSH1 0x20 ADD SWAP1 RETURN JUMPDEST CALLVALUE ISZERO PUSH2 0x0360 JUMPI 'fe'(Unknown Opcode) JUMPDEST PUSH2 0x012f PUSH2 0x08a9 JUMP JUMPDEST PUSH1 0x40 DUP1 MLOAD PUSH1 0x20 DUP1 DUP3 MSTORE DUP4 MLOAD DUP2 DUP4 ADD MSTORE DUP4 MLOAD SWAP2 SWAP3 DUP4 SWAP3 SWAP1 DUP4 ADD SWAP2 DUP6 ADD SWAP1 DUP1 DUP4 DUP4 DUP3 ISZERO PUSH2 0x0175 JUMPI JUMPDEST DUP1 MLOAD DUP3 MSTORE PUSH1 0x20 DUP4 GT ISZERO PUSH2 0x0175 JUMPI PUSH1 0x1f NOT SWAP1 SWAP3 ADD SWAP2 PUSH1 0x20 SWAP2 DUP3 ADD SWAP2 ADD PUSH2 0x0155 JUMP JUMPDEST POP POP POP SWAP1 POP SWAP1 DUP2 ADD SWAP1 PUSH1 0x1f AND DUP1 ISZERO PUSH2 0x01a1 JUMPI DUP1 DUP3 SUB DUP1 MLOAD PUSH1 0x01 DUP4 PUSH1 0x20 SUB PUSH2 0x0100 EXP SUB NOT AND DUP2 MSTORE PUSH1 0x20 ADD SWAP2 POP JUMPDEST POP SWAP3 POP POP POP PUSH1 0x40 MLOAD DUP1 SWAP2 SUB SWAP1 RETURN JUMPDEST CALLVALUE ISZERO PUSH2 0x03f0 JUMPI 'fe'(Unknown Opcode) JUMPDEST PUSH2 0x01ce PUSH1 0x01 PUSH1 0xa0 PUSH1 0x02 EXP SUB PUSH1 0x04 CALLDATALOAD AND PUSH1 0x24 CALLDATALOAD PUSH2 0x0937 JUMP JUMPDEST STOP JUMPDEST CALLVALUE ISZERO PUSH2 0x0411 JUMPI 'fe'(Unknown Opcode) JUMPDEST PUSH2 0x033c PUSH1 0x01 PUSH1 0xa0 PUSH1 0x02 EXP SUB PUSH1 0x04 CALLDATALOAD AND PUSH1 0x24 CALLDATALOAD PUSH1 0x44 CALLDATALOAD PUSH2 0x095f JUMP JUMPDEST PUSH1 0x40 DUP1 MLOAD PUSH1 0x01 PUSH1 0xa0 PUSH1 0x02 EXP SUB SWAP1 SWAP3 AND DUP3 MSTORE MLOAD SWAP1 DUP2 SWAP1 SUB PUSH1 0x20 ADD SWAP1 RETURN JUMPDEST CALLVALUE ISZERO PUSH2 0x044f JUMPI 'fe'(Unknown Opcode) JUMPDEST PUSH2 0x01e0 PUSH1 0x01 PUSH1 0xa0 PUSH1 0x02 EXP SUB PUSH1 0x04 CALLDATALOAD DUP2 AND SWAP1 PUSH1 0x24 CALLDATALOAD AND PUSH2 0x09f3 JUMP JUMPDEST PUSH1 0x40 DUP1 MLOAD SWAP2 DUP3 MSTORE MLOAD SWAP1 DUP2 SWAP1 SUB PUSH1 0x20 ADD SWAP1 RETURN JUMPDEST CALLVALUE ISZERO PUSH2 0x0483 JUMPI 'fe'(Unknown Opcode) JUMPDEST PUSH2 0x01ce PUSH1 0x01 PUSH1 0xa0 PUSH1 0x02 EXP SUB PUSH1 0x04 CALLDATALOAD AND PUSH2 0x0a20 JUMP JUMPDEST STOP JUMPDEST PUSH1 0x03 SLOAD PUSH1 0xa8 PUSH1 0x02 EXP SWAP1 DIV PUSH1 0xff AND DUP2 JUMP JUMPDEST PUSH1 0x05 DUP1 SLOAD PUSH1 0x40 DUP1 MLOAD PUSH1 0x20 PUSH1 0x02 PUSH1 0x01 DUP6 AND ISZERO PUSH2 0x0100 MUL PUSH1 0x00 NOT ADD SWAP1 SWAP5 AND SWAP4 SWAP1 SWAP4 DIV PUSH1 0x1f DUP2 ADD DUP5 SWAP1 DIV DUP5 MUL DUP3 ADD DUP5 ADD SWAP1 SWAP3 MSTORE DUP2 DUP2 MSTORE SWAP3 SWAP2 DUP4 ADD DUP3 DUP3 DUP1 ISZERO PUSH2 0x052f JUMPI DUP1 PUSH1 0x1f LT PUSH2 0x0504 JUMPI PUSH2 0x0100 DUP1 DUP4 SLOAD DIV MUL DUP4 MSTORE SWAP2 PUSH1 0x20 ADD SWAP2 PUSH2 0x052f JUMP JUMPDEST DUP3 ADD SWAP2 SWAP1 PUSH1 0x00 MSTORE PUSH1 0x20 PUSH1 0x00 SHA3 SWAP1 JUMPDEST DUP2 SLOAD DUP2 MSTORE SWAP1 PUSH1 0x01 ADD SWAP1 PUSH1 0x20 ADD DUP1 DUP4 GT PUSH2 0x0512 JUMPI DUP3 SWAP1 SUB PUSH1 0x1f AND DUP3 ADD SWAP2 JUMPDEST POP POP POP POP POP DUP2 JUMP JUMPDEST DUP1 ISZERO DUP1 ISZERO SWAP1 PUSH2 0x056a JUMPI POP PUSH1 0x01 PUSH1 0xa0 PUSH1 0x02 EXP SUB CALLER DUP2 AND PUSH1 0x00 SWAP1 DUP2 MSTORE PUSH1 0x02 PUSH1 0x20 SWAP1 DUP2 MSTORE PUSH1 0x40 DUP1 DUP4 SHA3 SWAP4 DUP7 AND DUP4 MSTORE SWAP3 SWAP1 MSTORE SHA3 SLOAD ISZERO ISZERO JUMPDEST ISZERO PUSH2 0x0575 JUMPI PUSH1 0x00 PUSH1 0x00 'fd'(Unknown Opcode) JUMPDEST PUSH1 0x01 PUSH1 0xa0 PUSH1 0x02 EXP SUB CALLER DUP2 AND PUSH1 0x00 DUP2 DUP2 MSTORE PUSH1 0x02 PUSH1 0x20 SWAP1 DUP2 MSTORE PUSH1 0x40 DUP1 DUP4 SHA3 SWAP5 DUP8 AND DUP1 DUP5 MSTORE SWAP5 DUP3 MSTORE SWAP2 DUP3 SWAP1 SHA3 DUP6 SWAP1 SSTORE DUP2 MLOAD DUP6 DUP2 MSTORE SWAP2 MLOAD PUSH32 0x8c5be1e5ebec7d5bd14f71427d1e84f3dd0314c0f7b2291e5b200ac8c7c3b925 SWAP3 DUP2 SWAP1 SUB SWAP1 SWAP2 ADD SWAP1 LOG3 JUMPDEST POP POP JUMP JUMPDEST PUSH1 0x04 SLOAD DUP2 JUMP JUMPDEST PUSH1 0x03 SLOAD PUSH1 0xa0 PUSH1 0x02 EXP SWAP1 DIV PUSH1 0xff AND ISZERO PUSH2 0x05f5 JUMPI PUSH1 0x00 PUSH1 0x00 'fd'(Unknown Opcode) JUMPDEST PUSH2 0x0600 DUP4 DUP4 DUP4 PUSH2 0x0a79 JUMP JUMPDEST JUMPDEST JUMPDEST POP POP POP JUMP JUMPDEST PUSH1 0x07 SLOAD DUP2 JUMP JUMPDEST PUSH1 0x03 SLOAD PUSH1 0x00 SWAP1 CALLER PUSH1 0x01 PUSH1 0xa0 PUSH1 0x02 EXP SUB SWAP1 DUP2 AND SWAP2 AND EQ PUSH2 0x062c JUMPI PUSH1 0x00 PUSH1 0x00 'fd'(Unknown Opcode) JUMPDEST PUSH1 0x03 SLOAD PUSH1 0xa0 PUSH1 0x02 EXP SWAP1 DIV PUSH1 0xff AND ISZERO ISZERO PUSH2 0x0645 JUMPI PUSH1 0x00 PUSH1 0x00 'fd'(Unknown Opcode) JUMPDEST PUSH1 0x03 DUP1 SLOAD PUSH21 0xff0000000000000000000000000000000000000000 NOT AND SWAP1 SSTORE PUSH1 0x40 MLOAD PUSH32 0x7805862f689e2f13df9f062ff482ad3ad112aca9e0847911ed832e158c525b33 SWAP1 PUSH1 0x00 SWAP1 LOG1 POP PUSH1 0x01 JUMPDEST JUMPDEST JUMPDEST SWAP1 JUMP JUMPDEST PUSH1 0x03 SLOAD PUSH1 0x00 SWAP1 CALLER PUSH1 0x01 PUSH1 0xa0 PUSH1 0x02 EXP SUB SWAP1 DUP2 AND SWAP2 AND EQ PUSH2 0x06b4 JUMPI PUSH1 0x00 PUSH1 0x00 'fd'(Unknown Opcode) JUMPDEST PUSH1 0x03 SLOAD PUSH1 0xa8 PUSH1 0x02 EXP SWAP1 DIV PUSH1 0xff AND ISZERO PUSH2 0x06cc JUMPI PUSH1 0x00 PUSH1 0x00 'fd'(Unknown Opcode) JUMPDEST PUSH1 0x04 SLOAD PUSH2 0x06df SWAP1 DUP4 PUSH4 0xffffffff PUSH2 0x0b9d AND JUMP JUMPDEST PUSH1 0x04 SSTORE PUSH1 0x01 PUSH1 0xa0 PUSH1 0x02 EXP SUB DUP4 AND PUSH1 0x00 SWAP1 DUP2 MSTORE PUSH1 0x01 PUSH1 0x20 MSTORE PUSH1 0x40 SWAP1 SHA3 SLOAD PUSH2 0x070b SWAP1 DUP4 PUSH4 0xffffffff PUSH2 0x0b9d AND JUMP JUMPDEST PUSH1 0x01 PUSH1 0xa0 PUSH1 0x02 EXP SUB DUP5 AND PUSH1 0x00 DUP2 DUP2 MSTORE PUSH1 0x01 PUSH1 0x20 SWAP1 DUP2 MSTORE PUSH1 0x40 SWAP2 DUP3 SWAP1 SHA3 SWAP4 SWAP1 SWAP4 SSTORE DUP1 MLOAD DUP6 DUP2 MSTORE SWAP1 MLOAD SWAP2 SWAP3 PUSH32 0x0f6798a560793a54c3bcfe86a93cde1e73087d944c0ea20544137d4121396885 SWAP3 SWAP2 DUP3 SWAP1 SUB ADD SWAP1 LOG2 POP PUSH1 0x01 JUMPDEST JUMPDEST JUMPDEST SWAP3 SWAP2 POP POP JUMP JUMPDEST PUSH1 0x03 SLOAD PUSH1 0xa0 PUSH1 0x02 EXP SWAP1 DIV PUSH1 0xff AND DUP2 JUMP JUMPDEST PUSH1 0x01 PUSH1 0xa0 PUSH1 0x02 EXP SUB DUP2 AND PUSH1 0x00 SWAP1 DUP2 MSTORE PUSH1 0x01 PUSH1 0x20 MSTORE PUSH1 0x40 SWAP1 SHA3 SLOAD JUMPDEST SWAP2 SWAP1 POP JUMP JUMPDEST PUSH1 0x03 SLOAD PUSH1 0x00 SWAP1 CALLER PUSH1 0x01 PUSH1 0xa0 PUSH1 0x02 EXP SUB SWAP1 DUP2 AND SWAP2 AND EQ PUSH2 0x07b7 JUMPI PUSH1 0x00 PUSH1 0x00 'fd'(Unknown Opcode) JUMPDEST PUSH1 0x03 DUP1 SLOAD PUSH22 0xff000000000000000000000000000000000000000000 NOT AND PUSH1 0xa8 PUSH1 0x02 EXP OR SWAP1 SSTORE PUSH1 0x40 MLOAD PUSH32 0xae5184fba832cb2b1f702aca6117b8d265eaf03ad33eb133f19dde0f5920fa08 SWAP1 PUSH1 0x00 SWAP1 LOG1 POP PUSH1 0x01 JUMPDEST JUMPDEST SWAP1 JUMP JUMPDEST PUSH1 0x03 SLOAD PUSH1 0x00 SWAP1 CALLER PUSH1 0x01 PUSH1 0xa0 PUSH1 0x02 EXP SUB SWAP1 DUP2 AND SWAP2 AND EQ PUSH2 0x082c JUMPI PUSH1 0x00 PUSH1 0x00 'fd'(Unknown Opcode) JUMPDEST PUSH1 0x03 SLOAD PUSH1 0xa0 PUSH1 0x02 EXP SWAP1 DIV PUSH1 0xff AND ISZERO PUSH2 0x0844 JUMPI PUSH1 0x00 PUSH1 0x00 'fd'(Unknown Opcode) JUMPDEST PUSH1 0x03 DUP1 SLOAD PUSH21 0xff0000000000000000000000000000000000000000 NOT AND PUSH1 0xa0 PUSH1 0x02 EXP OR SWAP1 SSTORE PUSH1 0x40 MLOAD PUSH32 0x6985a02210a168e66602d3235cb6db0e70f92b3ba4d376a33c0f3d9434bff625 SWAP1 PUSH1 0x00 SWAP1 LOG1 POP PUSH1 0x01 JUMPDEST JUMPDEST JUMPDEST SWAP1 JUMP JUMPDEST PUSH1 0x03 SLOAD PUSH1 0x01 PUSH1 0xa0 PUSH1 0x02 EXP SUB AND DUP2 JUMP JUMPDEST PUSH1 0x06 DUP1 SLOAD PUSH1 0x40 DUP1 MLOAD PUSH1 0x20 PUSH1 0x02 PUSH1 0x01 DUP6 AND ISZERO PUSH2 0x0100 MUL PUSH1 0x00 NOT ADD SWAP1 SWAP5 AND SWAP4 SWAP1 SWAP4 DIV PUSH1 0x1f DUP2 ADD DUP5 SWAP1 DIV DUP5 MUL DUP3 ADD DUP5 ADD SWAP1 SWAP3 MSTORE DUP2 DUP2 MSTORE SWAP3 SWAP2 DUP4 ADD DUP3 DUP3 DUP1 ISZERO PUSH2 0x052f JUMPI DUP1 PUSH1 0x1f LT PUSH2 0x0504 JUMPI PUSH2 0x0100 DUP1 DUP4 SLOAD DIV MUL DUP4 MSTORE SWAP2 PUSH1 0x20 ADD SWAP2 PUSH2 0x052f JUMP JUMPDEST DUP3 ADD SWAP2 SWAP1 PUSH1 0x00 MSTORE PUSH1 0x20 PUSH1 0x00 SHA3 SWAP1 JUMPDEST DUP2 SLOAD DUP2 MSTORE SWAP1 PUSH1 0x01 ADD SWAP1 PUSH1 0x20 ADD DUP1 DUP4 GT PUSH2 0x0512 JUMPI DUP3 SWAP1 SUB PUSH1 0x1f AND DUP3 ADD SWAP2 JUMPDEST POP POP POP POP POP DUP2 JUMP JUMPDEST PUSH1 0x03 SLOAD PUSH1 0xa0 PUSH1 0x02 EXP SWAP1 DIV PUSH1 0xff AND ISZERO PUSH2 0x094f JUMPI PUSH1 0x00 PUSH1 0x00 'fd'(Unknown Opcode) JUMPDEST PUSH2 0x05d3 DUP3 DUP3 PUSH2 0x0bb9 JUMP JUMPDEST JUMPDEST JUMPDEST POP POP JUMP JUMPDEST PUSH1 0x03 SLOAD PUSH1 0x00 SWAP1 DUP2 SWAP1 CALLER PUSH1 0x01 PUSH1 0xa0 PUSH1 0x02 EXP SUB SWAP1 DUP2 AND SWAP2 AND EQ PUSH2 0x0980 JUMPI PUSH1 0x00 PUSH1 0x00 'fd'(Unknown Opcode) JUMPDEST PUSH1 0x03 SLOAD PUSH1 0xa8 PUSH1 0x02 EXP SWAP1 DIV PUSH1 0xff AND ISZERO PUSH2 0x0998 JUMPI PUSH1 0x00 PUSH1 0x00 'fd'(Unknown Opcode) JUMPDEST ADDRESS DUP6 DUP5 PUSH2 0x09a3 PUSH2 0x0cb1 JUMP JUMPDEST PUSH1 0x01 PUSH1 0xa0 PUSH1 0x02 EXP SUB SWAP4 DUP5 AND DUP2 MSTORE SWAP2 SWAP1 SWAP3 AND PUSH1 0x20 DUP3 ADD MSTORE PUSH1 0x40 DUP1 DUP3 ADD SWAP3 SWAP1 SWAP3 MSTORE SWAP1 MLOAD SWAP1 DUP2 SWAP1 SUB PUSH1 0x60 ADD SWAP1 PUSH1 0x00 CREATE DUP1 ISZERO ISZERO PUSH2 0x09d8 JUMPI 'fe'(Unknown Opcode) JUMPDEST SWAP1 POP PUSH2 0x09e4 DUP2 DUP6 PUSH2 0x0695 JUMP JUMPDEST POP DUP1 SWAP2 POP JUMPDEST JUMPDEST JUMPDEST POP SWAP4 SWAP3 POP POP POP JUMP JUMPDEST PUSH1 0x01 PUSH1 0xa0 PUSH1 0x02 EXP SUB DUP1 DUP4 AND PUSH1 0x00 SWAP1 DUP2 MSTORE PUSH1 0x02 PUSH1 0x20 SWAP1 DUP2 MSTORE PUSH1 0x40 DUP1 DUP4 SHA3 SWAP4 DUP6 AND DUP4 MSTORE SWAP3 SWAP1 MSTORE SHA3 SLOAD JUMPDEST SWAP3 SWAP2 POP POP JUMP JUMPDEST PUSH1 0x03 SLOAD CALLER PUSH1 0x01 PUSH1 0xa0 PUSH1 0x02 EXP SUB SWAP1 DUP2 AND SWAP2 AND EQ PUSH2 0x0a3c JUMPI PUSH1 0x00 PUSH1 0x00 'fd'(Unknown Opcode) JUMPDEST PUSH1 0x01 PUSH1 0xa0 PUSH1 0x02 EXP SUB DUP2 AND ISZERO PUSH2 0x0a74 JUMPI PUSH1 0x03 DUP1 SLOAD PUSH20 0xffffffffffffffffffffffffffffffffffffffff NOT AND PUSH1 0x01 PUSH1 0xa0 PUSH1 0x02 EXP SUB DUP4 AND OR SWAP1 SSTORE JUMPDEST JUMPDEST JUMPDEST POP JUMP JUMPDEST PUSH1 0x00 PUSH1 0x60 PUSH1 0x64 CALLDATASIZE LT ISZERO PUSH2 0x0a8c JUMPI PUSH1 0x00 PUSH1 0x00 'fd'(Unknown Opcode) JUMPDEST PUSH1 0x01 PUSH1 0xa0 PUSH1 0x02 EXP SUB DUP1 DUP7 AND PUSH1 0x00 SWAP1 DUP2 MSTORE PUSH1 0x02 PUSH1 0x20 SWAP1 DUP2 MSTORE PUSH1 0x40 DUP1 DUP4 SHA3 CALLER DUP6 AND DUP5 MSTORE DUP3 MSTORE DUP1 DUP4 SHA3 SLOAD SWAP4 DUP9 AND DUP4 MSTORE PUSH1 0x01 SWAP1 SWAP2 MSTORE SWAP1 SHA3 SLOAD SWAP1 SWAP3 POP PUSH2 0x0ad3 SWAP1 DUP5 PUSH4 0xffffffff PUSH2 0x0b9d AND JUMP JUMPDEST PUSH1 0x01 PUSH1 0xa0 PUSH1 0x02 EXP SUB DUP1 DUP7 AND PUSH1 0x00 SWAP1 DUP2 MSTORE PUSH1 0x01 PUSH1 0x20 MSTORE PUSH1 0x40 DUP1 DUP3 SHA3 SWAP4 SWAP1 SWAP4 SSTORE SWAP1 DUP8 AND DUP2 MSTORE SHA3 SLOAD PUSH2 0x0b08 SWAP1 DUP5 PUSH4 0xffffffff PUSH2 0x0c87 AND JUMP JUMPDEST PUSH1 0x01 PUSH1 0xa0 PUSH1 0x02 EXP SUB DUP7 AND PUSH1 0x00 SWAP1 DUP2 MSTORE PUSH1 0x01 PUSH1 0x20 MSTORE PUSH1 0x40 SWAP1 SHA3 SSTORE PUSH2 0x0b31 DUP3 DUP5 PUSH4 0xffffffff PUSH2 0x0c87 AND JUMP JUMPDEST PUSH1 0x01 PUSH1 0xa0 PUSH1 0x02 EXP SUB DUP1 DUP8 AND PUSH1 0x00 DUP2 DUP2 MSTORE PUSH1 0x02 PUSH1 0x20 SWAP1 DUP2 MSTORE PUSH1 0x40 DUP1 DUP4 SHA3 CALLER DUP7 AND DUP5 MSTORE DUP3 MSTORE SWAP2 DUP3 SWAP1 SHA3 SWAP5 SWAP1 SWAP5 SSTORE DUP1 MLOAD DUP8 DUP2 MSTORE SWAP1 MLOAD SWAP3 DUP9 AND SWAP4 SWAP2 SWAP3 PUSH32 0xddf252ad1be2c89b69c2b068fc378daa952ba7f163c4a11628f55a4df523b3ef SWAP3 SWAP2 DUP2 SWAP1 SUB SWAP1 SWAP2 ADD SWAP1 LOG3 JUMPDEST JUMPDEST POP POP POP POP POP JUMP JUMPDEST PUSH1 0x00 DUP3 DUP3 ADD PUSH2 0x0bae DUP5 DUP3 LT ISZERO PUSH2 0x0ca0 JUMP JUMPDEST DUP1 SWAP2 POP JUMPDEST POP SWAP3 SWAP2 POP POP JUMP JUMPDEST PUSH1 0x40 PUSH1 0x44 CALLDATASIZE LT ISZERO PUSH2 0x0bca JUMPI PUSH1 0x00 PUSH1 0x00 'fd'(Unknown Opcode) JUMPDEST PUSH1 0x01 PUSH1 0xa0 PUSH1 0x02 EXP SUB CALLER AND PUSH1 0x00 SWAP1 DUP2 MSTORE PUSH1 0x01 PUSH1 0x20 MSTORE PUSH1 0x40 SWAP1 SHA3 SLOAD PUSH2 0x0bf3 SWAP1 DUP4 PUSH4 0xffffffff PUSH2 0x0c87 AND JUMP JUMPDEST PUSH1 0x01 PUSH1 0xa0 PUSH1 0x02 EXP SUB CALLER DUP2 AND PUSH1 0x00 SWAP1 DUP2 MSTORE PUSH1 0x01 PUSH1 0x20 MSTORE PUSH1 0x40 DUP1 DUP3 SHA3 SWAP4 SWAP1 SWAP4 SSTORE SWAP1 DUP6 AND DUP2 MSTORE SHA3 SLOAD PUSH2 0x0c28 SWAP1 DUP4 PUSH4 0xffffffff PUSH2 0x0b9d AND JUMP JUMPDEST PUSH1 0x01 PUSH1 0xa0 PUSH1 0x02 EXP SUB DUP1 DUP6 AND PUSH1 0x00 DUP2 DUP2 MSTORE PUSH1 0x01 PUSH1 0x20 SWAP1 DUP2 MSTORE PUSH1 0x40 SWAP2 DUP3 SWAP1 SHA3 SWAP5 SWAP1 SWAP5 SSTORE DUP1 MLOAD DUP7 DUP2 MSTORE SWAP1 MLOAD SWAP2 SWAP4 CALLER SWAP1 SWAP4 AND SWAP3 PUSH32 0xddf252ad1be2c89b69c2b068fc378daa952ba7f163c4a11628f55a4df523b3ef SWAP3 SWAP2 DUP3 SWAP1 SUB ADD SWAP1 LOG3 JUMPDEST JUMPDEST POP POP POP JUMP JUMPDEST PUSH1 0x00 PUSH2 0x0c95 DUP4 DUP4 GT ISZERO PUSH2 0x0ca0 JUMP JUMPDEST POP DUP1 DUP3 SUB JUMPDEST SWAP3 SWAP2 POP POP JUMP JUMPDEST DUP1 ISZERO ISZERO PUSH2 0x0a74 JUMPI PUSH1 0x00 PUSH1 0x00 'fd'(Unknown Opcode) JUMPDEST JUMPDEST POP JUMP JUMPDEST PUSH1 0x40 MLOAD PUSH2 0x025f DUP1 PUSH2 0x0cc2 DUP4 CODECOPY ADD SWAP1 JUMP STOP PUSH1 0x60 PUSH1 0x40 MSTORE CALLVALUE ISZERO PUSH2 0x000c JUMPI 'fe'(Unknown Opcode) JUMPDEST PUSH1 0x40 MLOAD PUSH1 0x60 DUP1 PUSH2 0x025f DUP4 CODECOPY DUP2 ADD PUSH1 0x40 SWAP1 DUP2 MSTORE DUP2 MLOAD PUSH1 0x20 DUP4 ADD MLOAD SWAP2 SWAP1 SWAP3 ADD MLOAD JUMPDEST TIMESTAMP DUP2 GT PUSH2 0x0038 JUMPI PUSH1 0x00 PUSH1 0x00 'fd'(Unknown Opcode) JUMPDEST PUSH1 0x00 DUP1 SLOAD PUSH1 0x01 PUSH1 0xa0 PUSH1 0x02 EXP SUB DUP1 DUP7 AND PUSH1 0x01 PUSH1 0xa0 PUSH1 0x02 EXP SUB NOT SWAP3 DUP4 AND OR SWAP1 SWAP3 SSTORE PUSH1 0x01 DUP1 SLOAD SWAP3 DUP6 AND SWAP3 SWAP1 SWAP2 AND SWAP2 SWAP1 SWAP2 OR SWAP1 SSTORE PUSH1 0x02 DUP2 SWAP1 SSTORE JUMPDEST POP POP POP JUMPDEST PUSH2 0x01de DUP1 PUSH2 0x0081 PUSH1 0x00 CODECOPY PUSH1 0x00 RETURN STOP PUSH1 0x60 PUSH1 0x40 MSTORE PUSH4 0xffffffff PUSH29 0x0100000000000000000000000000000000000000000000000000000000 PUSH1 0x00 CALLDATALOAD DIV AND PUSH4 0x4e71d92d DUP2 EQ PUSH2 0x003a JUMPI JUMPDEST 'fe'(Unknown Opcode) JUMPDEST CALLVALUE ISZERO PUSH2 0x0042 JUMPI 'fe'(Unknown Opcode) JUMPDEST PUSH2 0x004a PUSH2 0x004c JUMP JUMPDEST STOP JUMPDEST PUSH1 0x01 SLOAD PUSH1 0x00 SWAP1 CALLER PUSH20 0xffffffffffffffffffffffffffffffffffffffff SWAP1 DUP2 AND SWAP2 AND EQ PUSH2 0x0078 JUMPI PUSH1 0x00 PUSH1 0x00 'fd'(Unknown Opcode) JUMPDEST PUSH1 0x02 SLOAD TIMESTAMP LT ISZERO PUSH2 0x0088 JUMPI PUSH1 0x00 PUSH1 0x00 'fd'(Unknown Opcode) JUMPDEST PUSH1 0x00 DUP1 SLOAD PUSH1 0x40 DUP1 MLOAD PUSH1 0x20 SWAP1 DUP2 ADD DUP5 SWAP1 MSTORE DUP2 MLOAD PUSH32 0x70a0823100000000000000000000000000000000000000000000000000000000 DUP2 MSTORE PUSH20 0xffffffffffffffffffffffffffffffffffffffff ADDRESS DUP2 AND PUSH1 0x04 DUP4 ADD MSTORE SWAP3 MLOAD SWAP3 SWAP1 SWAP4 AND SWAP4 PUSH4 0x70a08231 SWAP4 PUSH1 0x24 DUP1 DUP3 ADD SWAP5 SWAP3 SWAP2 DUP4 SWAP1 SUB ADD SWAP1 DUP3 SWAP1 DUP8 DUP1 EXTCODESIZE ISZERO ISZERO PUSH2 0x0101 JUMPI 'fe'(Unknown Opcode) JUMPDEST PUSH2 0x02c6 GAS SUB CALL ISZERO ISZERO PUSH2 0x010f JUMPI 'fe'(Unknown Opcode) JUMPDEST POP POP PUSH1 0x40 MLOAD MLOAD SWAP2 POP POP PUSH1 0x00 DUP2 GT PUSH2 0x0126 JUMPI PUSH1 0x00 PUSH1 0x00 'fd'(Unknown Opcode) JUMPDEST PUSH1 0x00 DUP1 SLOAD PUSH1 0x01 SLOAD PUSH1 0x40 DUP1 MLOAD PUSH32 0xa9059cbb00000000000000000000000000000000000000000000000000000000 DUP2 MSTORE PUSH20 0xffffffffffffffffffffffffffffffffffffffff SWAP3 DUP4 AND PUSH1 0x04 DUP3 ADD MSTORE PUSH1 0x24 DUP2 ADD DUP7 SWAP1 MSTORE SWAP1 MLOAD SWAP2 SWAP1 SWAP3 AND SWAP3 PUSH4 0xa9059cbb SWAP3 PUSH1 0x44 DUP1 DUP3 ADD SWAP4 SWAP2 DUP3 SWAP1 SUB ADD DUP2 DUP4 DUP8 DUP1 EXTCODESIZE ISZERO ISZERO PUSH2 0x019d JUMPI 'fe'(Unknown Opcode) JUMPDEST PUSH2 0x02c6 GAS SUB CALL ISZERO ISZERO PUSH2 0x01ab JUMPI 'fe'(Unknown Opcode) JUMPDEST POP POP POP JUMPDEST POP JUMP STOP"}}}